:020000040800F2
:1000000000280020B11E00080D1500081315000877
:10001000191500081F15000825150008000000002C
:100020000000000000000000000000002B15000888
:100030003715000800000000431500084F150008A0
:10004000F91E0008F91E0008F91E0008F91E000834
:10005000F91E0008F91E0008F91E0008F91E000824
:10006000F91E0008F91E0008F91E0008F91E000814
:10007000F91E0008F91E0008F91E0008F91E000804
:10008000F91E0008F91E0008F91E0008F91E0008F4
:10009000F91E0008F91E0008F91E0008F91E0008E4
:1000A000F91E0008F91E0008F91E0008F91E0008D4
:1000B0005D150008F91E000800000000F91E000888
:1000C000F91E00080000000000000000F91E0008F2
:1000D00000000000F91E0008F91E000800000000E2
:1000E000F91E0008F91E0008F91E000800000000B3
:1000F0000000000000000000000000000000000000
:0C01000000000000000000005FF808F1A3
:10010C0010B5054C237833B9044B13B10448AFF345
:10011C0000800123237010BD8C0000200000000023
:10012C002835000808B5034B1BB103490348AFF34E
:10013C00008008BD00000000900000202835000859
:10014C0080B400AF064B1B68012B04D1044B00227A
:10015C001A60012300E000231846BD4680BC70479E
:10016C00A800002080B400AF064B1B68012B04D103
:10017C00044B00221A60012300E000231846BD4600
:10018C0080BC7047AC00002080B400AF064B1B68ED
:10019C00012B04D1044B00221A60012300E0002340
:1001AC001846BD4680BC7047B000002080B582B0B8
:1001BC0000AF00237B60A2E0554A7B6852F82320F5
:1001CC0054497B6841F82320534A7B6852F823201A
:1001DC004F497B6841F823207B68002B0AD14FF4F0
:1001EC0000514E4802F06EF9034619464A4A7B68A4
:1001FC0042F823107B68012B0AD14FF48041474809
:10020C0002F060F903461946434A7B6842F8231012
:10021C007B68022B0AD14FF40041404802F052F99E
:10022C00034619463C4A7B6842F82310394A7B68DE
:10023C0052F8232036497B6851F823309A425BD11F
:10024C00334A7B6852F8232033497B6851F82330BA
:10025C009A4251D1324A7B6852F823202E497B684E
:10026C0051F823309A4223D02B4A7B6852F8232032
:10027C002B497B6841F82320274A7B6852F82330AE
:10028C00002B39D17B68002B02D1264B01221A603E
:10029C007B68012B02D1244B01221A607B68022B54
:1002AC0002D1224B01221A60214BC8221A6023E092
:1002BC001F4B1B68013B1E4A13601D4B1B68002B18
:1002CC001AD11B4BC8221A60134A7B6852F8233090
:1002DC00002B11D17B68002B02D1124B01221A602A
:1002EC007B68012B02D1104B01221A607B68022B18
:1002FC0002D10E4B01221A607B6801337B607B6854
:10030C00022B7FF759AF00BF00BF0837BD4680BD39
:10031C000C000020000000201800002000100140FC
:10032C0024000020A8000020AC000020B000002019
:10033C003000002080B582B000AF78607B68002B65
:10034C0003D07B68012B12D023E0144B1B6818469A
:10035C0001F04AFA00224FF48051114802F0C9F81A
:10036C0001224FF400510E4802F0C3F811E00B4B80
:10037C005B68184601F038FA01224FF480510848A6
:10038C0002F0B7F800224FF40051054802F0B1F822
:10039C0000BF00BF0837BD4680BD00BF280100204C
:1003AC000008014080B582B000AF78607B68002BFC
:1003BC0003D07B68012B12D023E0144B1B6818462A
:1003CC0001F0A2FB00224FF48041114802F091F899
:1003DC0001224FF400410E4802F08BF811E00B4B58
:1003EC005B68184601F090FB01224FF480410848ED
:1003FC0002F07FF800224FF40041054802F079F832
:10040C0000BF00BF0837BD4680BD00BF30010020D3
:10041C000008014080B500AF444B1B680B3B032B1D
:10042C0078D801A252F823F04504000873040008A0
:10043C00AD040008E70400083D4B1B68012B6BD191
:10044C003C4B1B685A1C3B490A601846FFF772FF6D
:10045C00384B1B68022B02D1364B00221A60C82085
:10046C0000F08EFE58E0344B00221A60324B022210
:10047C005A602F4B1B68012B50D12E4B1B685A1CFA
:10048C002C490A601846FFF755FF2A4B1B68022BB4
:10049C0002D1284B00221A60C82000F071FE3DE00A
:1004AC00254B00221A60244B03225A60204B1B68F8
:1004BC00012B35D11F4B1B685A1C1E490A6018466C
:1004CC00FFF738FF1B4B1B68022B02D1194B002284
:1004DC001A60C82000F054FE22E0174B00221A606C
:1004EC00154B04225A60124B1B68012B1AD1114B6D
:1004FC001B685A1C0F490A601846FFF71BFF0D4B6F
:10050C001B68022B02D10B4B00221A60C82000F092
:10051C0037FE07E000BF06E000BF04E000BF02E0CA
:10052C0000BF00E000BF00BF80BD00BF3400002052
:10053C00D8000020B80000202801002080B500AFB2
:10054C001C4B1B680F2B02D0102B17D030E01A4B12
:10055C001B68012B29D1194B1B685A1C17490A60BF
:10056C001846FFF71FFF154B1B68022B02D1134BCC
:10057C0000221A60C82000F037FE16E00E4B1B68F4
:10058C00012B14D10D4B1B685A1C0C490A601846E0
:10059C00FFF708FF094B1B68022B02D1074B002207
:1005AC001A60C82000F020FE01E000BF00E000BF90
:1005BC0000BF80BD38000020E8000020BC000020F7
:1005CC0080B500AF8C4B1B68042B00F2138101A289
:1005DC0052F823F0F5050008FD050008290600086F
:1005EC00BF06000853070008834B01221A6001E183
:1005FC00824B05221A60824B09221A60814B0B2216
:10060C001A60814B0F221A60FFF79AFD0346012BEB
:10061C0040F0E980784B02221A60E4E0774B062226
:10062C001A60774B1E221A60764B0C221A60764B9E
:10063C0010221A60FFF796FD0346012B09D1734B6C
:10064C001B680133714A1360714B1B680133704A8C
:10065C0013606F4B1B686F4A82FB03129210DB17FF
:10066C00D31A6D4A13606A4B19686A4B83FB0123DA
:10067C009A10CB17D21A13469B0013445B00CA1A6C
:10068C00654B5A60FFF780FD0346012B07D15F4B8A
:10069C001B68624A13605E4B1B68614A1360FFF76C
:1006AC004FFD0346012B40F0A080534B03221A60F0
:1006BC009BE0524B08221A60514B20221A60514B7E
:1006CC000D221A60504B10221A60FFF74BFD0346A7
:1006DC00012B09D1534B1B680133524A1360524B07
:1006EC001B680133504A13604F4B1B68494A82FB0D
:1006FC0003129210DB17D31A474A13604A4B19683E
:10070C00444B83FB01239A10CB17D21A13469B0040
:10071C0013445B00CA1A404B5A60FFF735FD034681
:10072C00012B07D13F4B1B68404A13603E4B1B68A3
:10073C003F4A1360FFF704FD0346012B57D12E4BA4
:10074C0004221A6053E02D4B07221A602C4B1F22F7
:10075C001A602C4B0E221A602B4B10221A60FFF7DA
:10076C0001FD0346012B09D1324B1B680133314A81
:10077C001360314B1B6801332F4A13602E4B1B68DF
:10078C00244A82FB03129210DB17D31A224A1360FD
:10079C00294B19681F4B83FB01239A10CB17D21AD4
:1007AC0013469B0013445B00CA1A1B4B5A60FFF79D
:1007BC00EBFC0346012B07D11E4B1B681F4A136031
:1007CC001D4B1B681E4A1360FFF7BAFC0346012B36
:1007DC000FD11C4B13221A601B4B17221A60064BAD
:1007EC0000221A6005E000BF04E000BF02E000BF79
:1007FC0000E000BF00BF80BDB4000020440000201A
:10080C004800002034000020380000204C0000205C
:10081C006C000020676666663001002058000020DE
:10082C0078000020540000206800002060000020A8
:10083C007400002050000020640000205C000020A8
:10084C00700000203C0000204000002080B500AF6C
:10085C00854B1B68133B032B00F2FD8001A252F861
:10086C0023F000BF81080008AB0800083F0900080E
:10087C00D10900087C4B14221A607C4B1B684FF486
:10088C007A7202FB03F37A4A1360794B1B681846A1
:10089C0000F028FC4FF47A7000F058FCE2E000F015
:1008AC0067FE744B1B68744A82FB03129210DB17B1
:1008BC00D31A724A13606F4B19686F4B83FB012379
:1008CC009A10CB17D21A13469B0013445B00CA1A1A
:1008DC006A4B5A606A4B1B68012B10D1654B1B6825
:1008EC00013B644A1360634B1B68002B03D15F4BC5
:1008FC001B68604A13604FF47A7000F027FC614B60
:10090C001B68012B40F0A980574B15221A605E4BD7
:10091C001B684FF47A7202FB03F3554A5360544B35
:10092C005B68184600F0DEFB4FF47A7000F00EFCAA
:10093C0093E000F033FE554B1B684F4A82FB0312C9
:10094C009210DB17D31A4D4A1360504B19684A4B5F
:10095C0083FB01239A10CB17D21A13469B00134426
:10096C005B00CA1A454B5A60454B1B68012B10D1D2
:10097C00464B1B68013B454A1360444B1B68002BDC
:10098C0003D1414B1B68414A13604FF47A7000F05D
:10099C00DDFB3C4B1B68012B61D1334B16221A60DB
:1009AC003B4B1B684FF47A7202FB03F3304A9360A3
:1009BC002F4B9B68184600F095FB4FF47A7000F0B3
:1009CC00C5FB4CE000F000FE324B1B682A4A82FB50
:1009DC0003129210DB17D31A284A13602D4B196897
:1009EC00254B83FB01239A10CB17D21A13469B007D
:1009FC0013445B00CA1A214B5A60214B1B68012B14
:100A0C0010D1244B1B68013B224A1360214B1B68FD
:100A1C00002B03D11E4B1B681E4A13604FF47A70D7
:100A2C0000F094FB174B1B68012B1AD10E4B1422B0
:100A3C001A600E4B1B684FF47A7202FB03F30C4ADC
:100A4C0013600B4B1B68184600F04CFB4FF47A708C
:100A5C0000F07CFB05E000BF04E000BF02E000BF3B
:100A6C0000E000BF00BF80BD3C0000204C00002017
:100A7C0010010020580000206766666628010020DF
:100A8C00D0000020C0000020500000205C0000209E
:100A9C00540000206000002080B500AF854B1B681F
:100AAC00173B032B00F2FD8001A252F823F000BF8C
:100ABC00CD0A00081D0C0008F70A00088B0B000873
:100ACC007C4B19221A607C4B1B684FF47A7202FB28
:100ADC0003F37A4A1360794B1B68184600F01CFB31
:100AEC004FF47A7000F066FBE2E000F09BFD744B73
:100AFC001B68744A82FB03129210DB17D31A724ADA
:100B0C0013606F4B19686F4B83FB01239A10CB1743
:100B1C00D21A13469B0013445B00CA1A6A4B5A60E4
:100B2C006A4B1B68012B10D1654B1B68013B644A57
:100B3C001360634B1B68002B03D15F4B1B68604A2F
:100B4C0013604FF47A7000F035FB614B1B68012B7E
:100B5C0040F0A980574B1A221A605E4B1B684FF469
:100B6C007A7202FB03F3554A5360544B5B68184688
:100B7C0000F0D2FA4FF47A7000F01CFB93E000F016
:100B8C0069FD554B1B684F4A82FB03129210DB1711
:100B9C00D31A4D4A1360504B19684A4B83FB0123FF
:100BAC009A10CB17D21A13469B0013445B00CA1A37
:100BBC00454B5A60454B1B68012B10D1464B1B68AB
:100BCC00013B454A1360444B1B68002B03D1414B3E
:100BDC001B68414A13604FF47A7000F0EBFA3C4BFF
:100BEC001B68012B61D1334B18221A603B4B1B68DD
:100BFC004FF47A7202FB03F3304A93602F4B9B68DD
:100C0C00184600F089FA4FF47A7000F0D3FA4CE0F1
:100C1C0000F0F0FC324B1B682A4A82FB0312921044
:100C2C00DB17D31A284A13602D4B1968254B83FB0D
:100C3C0001239A10CB17D21A13469B0013445B0066
:100C4C00CA1A214B5A60214B1B68012B10D1244B23
:100C5C001B68013B224A1360214B1B68002B03D1FC
:100C6C001E4B1B681E4A13604FF47A7000F0A2FAF8
:100C7C00174B1B68012B1AD10E4B19221A600E4B05
:100C8C001B684FF47A7202FB03F30C4A13600B4B94
:100C9C001B68184600F040FA4FF47A7000F08AFA9C
:100CAC0005E000BF04E000BF02E000BF00E000BFB1
:100CBC0000BF80BD40000020640000201C0100200B
:100CCC00700000206766666630010020E00000209E
:100CDC00C800002068000020740000206C00002078
:100CEC007800002080B500AF214B1B68053B032B1F
:100CFC0034D801A252F823F0150D00081B0D000882
:100D0C004F0D0008350D0008FFF7A0FD2DE000F099
:100D1C0005FD184B1B68012B22D100F0BDFC4FF4D4
:100D2C00FA7000F095FA1BE000F008FD114B1B68FF
:100D3C00012B17D100F0C4FC4FF4FA7000F088FAC4
:100D4C0010E000F00BFD0B4B1B68012B0CD100F0DD
:100D5C00ADFC4FF4FA7000F07BFA05E000BF04E044
:100D6C0000BF02E000BF00E000BF00BF80BD00BFBD
:100D7C0044000020F800002080B500AF354B1B6804
:100D8C00093B172B5CD801A252F823F0F90D00088F
:100D9C004D0E00084D0E00084D0E00084D0E0008BB
:100DAC004D0E00084D0E00084D0E00084D0E0008AB
:100DBC004D0E00084D0E00084D0E00084D0E00089B
:100DCC004D0E00084D0E00084D0E00084D0E00088B
:100DDC004D0E00084D0E00084D0E00084D0E00087B
:100DEC00FF0D0008330E0008190E0008FFF754FE23
:100DFC002DE000F0C3FC184B1B68012B22D100F036
:100E0C0069FC4FF4FA7000F009FA1BE000F0C8FC22
:100E1C00114B1B68012B17D100F074FC4FF4FA70C6
:100E2C0000F0FCF910E000F0CDFC0B4B1B68012B23
:100E3C000CD100F05BFC4FF4FA7000F0EFF905E018
:100E4C0000BF04E000BF02E000BF00E000BF00BF35
:100E5C0080BD00BF48000020F000002080B500AF2E
:100E6C0001F046F800F032F800F0B8F800F06AF83B
:100E7C00144801F09BFF0A2000F082F90A2000F0D0
:100E8C00B3F94FF4FA7000F0C9F94FF4FA7000F0AE
:100E9C00DFF94FF4FA7000F0F5F90B4B1B68012BDE
:100EAC0005D100F0EFFB4FF4FA7000F0EBF9FFF70F
:100EBC0087FBFFF7AFFAFFF741FBFFF75DFFFFF78B
:100ECC0011FFEAE7380100200801002080B590B03E
:100EDC0000AF07F1180328220021184602F016FB78
:100EEC003B1D00221A605A609A60DA601A61022374
:100EFC00BB610123BB621023FB6200237B6307F100
:100F0C001803184601F026FB0346002B01D000F015
:100F1C00E3F80F237B600023BB600023FB600023FE
:100F2C003B6100237B613B1D0021184601F092FDC3
:100F3C000346002B01D000F0CFF800BF4037BD4670
:100F4C0080BD000080B586B000AF07F10803002219
:100F5C001A605A609A60DA603B4600221A605A6046
:100F6C001D4B4FF080421A601B4B41F63F725A608A
:100F7C00194B00229A60184B0922DA60164B00229A
:100F8C001A61154B00229A61134801F0BFFE03460B
:100F9C00002B01D000F0A0F84FF48053BB6007F198
:100FAC00080319460C4802F03DF80346002B01D00B
:100FBC0000F092F800233B6000237B603B4619460F
:100FCC00054802F015FA0346002B01D000F084F816
:100FDC0000BF1837BD4680BD3801002080B588B0F1
:100FEC0000AF07F1100300221A605A609A60DA60B1
:100FFC002F4B9B692E4A43F0100393612C4B9B693A
:10100C0003F01003FB60FB68294B9B69284A43F0F3
:10101C0004039361264B9B6903F00403BB60BB681C
:10102C00234B9B69224A43F008039361204B9B6935
:10103C0003F008037B607B6800224FF2E8711D48C7
:10104C0001F057FA002247F67F711B4801F051FA64
:10105C004FF460433B6100237B610123BB6107F1CB
:10106C0010031946154801F0B3F84FF2E8733B61D1
:10107C0001237B610023BB610223FB6107F1100399
:10108C0019460C4801F0A4F847F67F733B61012325
:10109C007B610023BB610223FB6107F1100319463E
:1010AC00054801F095F800BF2037BD4680BD00BF54
:1010BC000010024000080140000C014000100140EB
:1010CC0080B582B000AF786000F0F6F8FFF76EF8EC
:1010DC0000BF0837BD4680BD80B400AF72B600BFFC
:1010EC00FEE7000080B483B000AF7860074B1B684C
:1010FC007A6892FBF3F3064A1360064B00221A60DF
:10110C0000BF0C37BD4680BC704700BF7C00002080
:10111C00C4000020C000002080B483B000AF786011
:10112C00074B1B687A6892FBF3F3064A1360064B75
:10113C0000221A6000BF0C37BD4680BC704700BF50
:10114C007C000020CC000020C800002080B483B0BC
:10115C0000AF7860074B1B687A6892FBF3F3064A82
:10116C001360064B00221A6000BF0C37BD4680BCD2
:10117C00704700BF7C000020D4000020D00000206D
:10118C0080B483B000AF7860074B1B687A6892FB21
:10119C00F3F3064A1360064B00221A6000BF0C37AB
:1011AC00BD4680BC704700BF7C000020DC000020E6
:1011BC00D800002080B483B000AF7860074B1B6868
:1011CC007A6892FBF3F3064A1360064B00221A600E
:1011DC0000BF0C37BD4680BC704700BF7C000020B0
:1011EC00E4000020E000002080B483B000AF786001
:1011FC00074B1B687A6892FBF3F3064A1360064BA5
:10120C0000221A6000BF0C37BD4680BC704700BF7F
:10121C007C000020EC000020E800002080B483B0AB
:10122C0000AF7860074B1B687A6892FBF3F3064AB1
:10123C001360064B00221A6000BF0C37BD4680BC01
:10124C00704700BF7C000020F4000020F00000205C
:10125C0080B483B000AF7860074B1B687A6892FB50
:10126C00F3F3064A1360064B00221A6000BF0C37DA
:10127C00BD4680BC704700BF7C000020FC000020F5
:10128C00F800002080B483B000AF7860074B1B6877
:10129C007A6892FBF3F3064A1360064B00221A603D
:1012AC0000BF0C37BD4680BC704700BF7C000020DF
:1012BC000C0100200801002080B400AF514B1B68CA
:1012CC00002B04DD4F4B1B68013B4E4A13604D4B0A
:1012DC001B68002B02D14C4B01221A604B4B1B6834
:1012EC00002B04DD494B1B68013B484A1360474BFC
:1012FC001B68002B02D1464B01221A60454B1B6820
:10130C00002B04DD434B1B68013B424A1360414BED
:10131C001B68002B02D1404B01221A603F4B1B680B
:10132C00002B04DD3D4B1B68013B3C4A13603B4BDF
:10133C001B68002B02D13A4B01221A60394B1B68F7
:10134C00002B04DD374B1B68013B364A1360354BD1
:10135C001B68002B02D1344B01221A60334B1B68E3
:10136C00002B04DD314B1B68013B304A13602F4BC3
:10137C001B68002B02D12E4B01221A602D4B1B68CF
:10138C00002B04DD2B4B1B68013B2A4A1360294BB5
:10139C001B68002B02D1284B01221A60274B1B68BB
:1013AC00002B04DD254B1B68013B244A1360234BA7
:1013BC001B68002B02D1224B01221A60214B1B68A7
:1013CC00002B04DD1F4B1B68013B1E4A13601D4B99
:1013DC001B68002B02D11C4B01221A601B4B1B6893
:1013EC00002B04DD194B1B68013B184A1360174B8B
:1013FC001B68002B02D1164B01221A6000BFBD46A0
:10140C0080BC7047C4000020C0000020CC0000202D
:10141C00C8000020D4000020D0000020DC000020F8
:10142C00D8000020E4000020E0000020EC000020A8
:10143C00E8000020F4000020F0000020FC00002058
:10144C00F800002004010020000100200C01002005
:10145C000801002080B485B000AF154B9B69144A7D
:10146C0043F001039361124B9B6903F00103BB60D2
:10147C00BB680F4BDB690E4A43F08053D3610C4BB6
:10148C00DB6903F080537B607B680A4B5B68FB6015
:10149C00FB6823F0E063FB60FB6843F08063FB6058
:1014AC00044AFB68536000BF1437BD4680BC7047CC
:1014BC00001002400000014080B584B000AF78609D
:1014CC007B681B68B3F1804F13D10C4BDB690B4A63
:1014DC0043F00103D361094BDB6903F00103FB60AB
:1014EC00FB68002200211C2000F03BFE1C2000F0B9
:1014FC0054FE00BF1037BD4680BD00BF0010024037
:10150C0080B400AFFEE780B400AFFEE780B400AF5C
:10151C00FEE780B400AFFEE780B400AFFEE780B416
:10152C0000AF00BFBD4680BC704780B400AF00BFA9
:10153C00BD4680BC704780B400AF00BFBD4680BCC8
:10154C00704780B500AF00F019FD00BF80BD0000F2
:10155C0080B500AF024801F075FC00BF80BD00BF34
:10156C003801002080B400AF00BFBD4680BC70477E
:10157C0080B500AF00222021074800F0BAFF0122FD
:10158C004021054800F0B5FF01228021024800F0FF
:10159C00B0FF00BF80BD00BF0008014080B500AFA8
:1015AC0001222021074800F0A4FF01224021054818
:1015BC0000F09FFF00228021024800F09AFF00BF3C
:1015CC0080BD00BF0008014080B500AF0122202182
:1015DC00074800F08EFF00224021054800F089FFEB
:1015EC0001228021024800F084FF00BF80BD00BFB3
:1015FC000008014080B500AF00224FF4807108480C
:10160C0000F077FF01224FF40071054800F071FFE4
:10161C0001224FF48061024800F06BFF00BF80BDD7
:10162C000008014080B500AF01224FF480710848DA
:10163C0000F05FFF01224FF40071054800F059FFE4
:10164C0000224FF48061024800F053FF00BF80BDC0
:10165C000008014080B500AF01224FF480710848AA
:10166C0000F047FF00224FF40071054800F041FFE5
:10167C0001224FF48061024800F03BFF00BF80BDA7
:10168C000008014080B500AF0821024800F049FF76
:10169C0000BF80BD0008014080B500AF202102488A
:1016AC0000F03FFF00BF80BD0008014080B500AFD7
:1016BC008021024800F035FF00BF80BD00080140CA
:1016CC0080B500AF4021024800F02BFF00BF80BD69
:1016DC000008014080B500AF4FF48071024800F063
:1016EC0020FF00BF80BD00BF0008014080B500AFE7
:1016FC004FF48061024800F014FF00BF80BD00BFB2
:10170C000008014080B500AF4FF40071024800F0B2
:10171C0008FF00BF80BD00BF0008014080B500AFCE
:10172C0001224021044800F0E4FE012280210248FD
:10173C0000F0DFFE00BF80BD0008014080B500AFA7
:10174C0001222021044800F0D4FE0122802102480D
:10175C0000F0CFFE00BF80BD0008014080B500AF97
:10176C0001222021044800F0C4FE0122402102483D
:10177C0000F0BFFE00BF80BD0008014080B500AF87
:10178C0001224FF40071054800F0B3FE01224FF422
:10179C008061024800F0ADFE00BF80BD0008014032
:1017AC0080B500AF01224FF48071054800F0A1FE16
:1017BC0001224FF48061024800F09BFE00BF80BD07
:1017CC000008014080B500AF01224FF4807105483C
:1017DC0000F08FFE01224FF40071024800F089FEE8
:1017EC0000BF80BD0008014080B582B000AF7860BA
:1017FC007B68092B00F2808101A252F823F000BF14
:10180C00351800087D180008C51800080D190008C7
:10181C00551900089D190008E51900082D1A000833
:10182C00751A0008BD1A000800220121B54800F005
:10183C0060FE00220221B34800F05BFE002204216E
:10184C00B04800F056FE00220821AE4800F051FED0
:10185C0000221021AB4800F04CFE00222021A948A8
:10186C0000F047FE01224021A64800F042FE44E170
:10187C0001220121A34800F03CFE00220221A148D4
:10188C0000F037FE002204219E4800F032FE0122B7
:10189C0008219C4800F02DFE01221021994800F0EF
:1018AC0028FE01222021974800F023FE012240212E
:1018BC00944800F01EFE20E100220121914800F026
:1018CC0018FE002202218F4800F013FE0122042191
:1018DC008C4800F00EFE002208218A4800F009FE18
:1018EC0000221021874800F004FE012220218548A7
:1018FC0000F0FFFD00224021824800F0FAFDFCE0E0
:10190C00002201217F4800F0F4FD002202217D48D5
:10191C0000F0EFFD002204217A4800F0EAFD0022DD
:10192C000821784800F0E5FD01221021754800F0EF
:10193C00E0FD01222021734800F0DBFD0022402154
:10194C00704800F0D6FDD8E0012201216D4800F06E
:10195C00D0FD002202216B4800F0CBFD00220421B7
:10196C00684800F0C6FD01220821664800F0C1FD60
:10197C0001221021634800F0BCFD002220216148A7
:10198C0000F0B7FD002240215E4800F0B2FDB4E04B
:10199C00002201215B4800F0ACFD012202215948D4
:1019AC0000F0A7FD00220421564800F0A2FD002201
:1019BC000821544800F09DFD01221021514800F0EF
:1019CC0098FD002220214F4800F093FD0022402179
:1019DC004C4800F08EFD90E000220121494800F0B7
:1019EC0088FD01220221474800F083FD00220421DA
:1019FC00444800F07EFD00220821424800F079FDA9
:101A0C00002210213F4800F074FD002220213D48A7
:101A1C0000F06FFD002240213A4800F06AFD6CE0B6
:101A2C0000220121374800F064FD002202213548D4
:101A3C0000F05FFD00220421324800F05AFD012223
:101A4C000821304800F055FD012210212D4800F0EE
:101A5C0050FD012220212B4800F04BFD012240219A
:101A6C00284800F046FD48E000220121254800F0FE
:101A7C0040FD00220221234800F03BFD00220421FE
:101A8C00204800F036FD002208211E4800F031FDF0
:101A9C00002210211B4800F02CFD002220211948A7
:101AAC0000F027FD00224021164800F022FD24E022
:101ABC0000220121134800F01CFD002202211148D4
:101ACC0000F017FD002204210E4800F012FD002248
:101ADC0008210C4800F00DFD01221021094800F0EE
:101AEC0008FD00222021074800F003FD00224021C0
:101AFC00044800F0FEFC00E000BF00BF0837BD4604
:101B0C0080BD00BF000C014080B582B000AF786092
:101B1C007B68092B00F2BF8101A252F823F000BFB1
:101B2C00551B0008AB1B0008011C0008571C0008C3
:101B3C00AD1C0008031D0008591D0008AF1D00084E
:101B4C00F71D00084D1E000800224FF48071D44888
:101B5C0000F0CFFC00224FF40071D14800F0C9FC1A
:101B6C0000224FF48061CE4800F0C3FC00224FF4F9
:101B7C000061CB4800F0BDFC00224FF48051C848F6
:101B8C0000F0B7FC00224FF40051C54800F0B1FC46
:101B9C0001224FF48041C24800F0ABFC7CE10122F1
:101BAC004FF48071BE4800F0A4FC00224FF4007189
:101BBC00BB4800F09EFC00224FF48061B84800F056
:101BCC0098FC01224FF40061B54800F092FC012210
:101BDC004FF48051B24800F08CFC01224FF40051BC
:101BEC00AF4800F086FC01224FF48041AC4800F075
:101BFC0080FC51E100224FF48071A94800F079FC7F
:101C0C0000224FF40071A64800F073FC01224FF43F
:101C1C008061A34800F06DFC00224FF40061A048E5
:101C2C0000F067FC00224FF480519D4800F061FCED
:101C3C0001224FF400519A4800F05BFC00224FF453
:101C4C008041974800F055FC26E100224FF480714A
:101C5C00934800F04EFC00224FF40071904800F0C5
:101C6C0048FC00224FF480618D4800F042FC0022B9
:101C7C004FF400618A4800F03CFC01224FF4805183
:101C8C00874800F036FC01224FF40051844800F0E4
:101C9C0030FC00224FF48041814800F02AFCFBE02C
:101CAC0001224FF480717E4800F023FC00224FF497
:101CBC0000717B4800F01DFC00224FF480617848D5
:101CCC0000F017FC01224FF40061754800F011FC84
:101CDC0001224FF48051724800F00BFC00224FF4AB
:101CEC0000516F4800F005FC00224FF480416C4815
:101CFC0000F0FFFBD0E000224FF48071684800F048
:101D0C00F8FB01224FF40071654800F0F2FB002251
:101D1C004FF48061624800F0ECFB00224FF400614C
:101D2C005F4800F0E6FB01224FF480515C4800F064
:101D3C00E0FB00224FF40051594800F0DAFB00227E
:101D4C004FF48041564800F0D4FBA5E000224FF43C
:101D5C008071534800F0CDFB01224FF400715048C4
:101D6C0000F0C7FB00224FF480614D4800F0C1FB2E
:101D7C0000224FF400614A4800F0BBFB00224FF4F4
:101D8C008051474800F0B5FB00224FF40051444805
:101D9C0000F0AFFB00224FF48041414800F0A9FB5A
:101DAC007AE0002201213E4800F0A3FB0022022130
:101DBC003B4800F09EFB00220421394800F099FBBF
:101DCC0001220821364800F094FB012210213448EE
:101DDC0000F08FFB01222021314800F08AFB012208
:101DEC0040212F4800F085FB56E000224FF4807113
:101DFC002B4800F07EFB00224FF40071284800F0C5
:101E0C0078FB00224FF48061254800F072FB002221
:101E1C004FF40061224800F06CFB00224FF480511B
:101E2C001F4800F066FB00224FF400511C4800F0E4
:101E3C0060FB00224FF48041194800F05AFB2BE064
:101E4C0000224FF48071164800F053FB00224FF42F
:101E5C000071134800F04DFB00224FF480611048D4
:101E6C0000F047FB00224FF400610D4800F041FBED
:101E7C0001224FF480510A4800F03BFB00224FF442
:101E8C000051074800F035FB00224FF48041044814
:101E9C0000F02FFB00E000BF00BF0837BD4680BD3F
:101EAC00000C0140FFF75EFB0B480C490C4A002369
:101EBC0002E0D458C4500433C4188C42F9D3094AF4
:101ECC00094C002301E013600432A242FBD301F061
:101EDC00F9FAFEF7C3FF7047000000208C000020C9
:101EEC006C3500088C00002084010020FEE7000007
:101EFC0080B500AF084B1B68074A43F01003136012
:101F0C00032000F023F90F2000F008F8FFF7A2FAE5
:101F1C000023184680BD00BF0020024080B582B06F
:101F2C0000AF7860124B1A68124B1B7819464FF4AD
:101F3C007A73B3FBF1F3B2FBF3F3184600F03BF901
:101F4C000346002B01D001230EE07B680F2B0AD82F
:101F5C00002279684FF0FF3000F003F9064A7B68E5
:101F6C001360002300E0012318460837BD4680BDEE
:101F7C0080000020880000208400002080B400AF86
:101F8C00054B1B781A46054B1B681344034A136018
:101F9C0000BFBD4680BC7047880000208001002037
:101FAC0080B400AF024B1B681846BD4680BC70471E
:101FBC008001002080B485B000AF78607B6803F0AE
:101FCC000703FB600C4BDB68BB60BA684FF6FF0382
:101FDC001340BB60FB681A02BB68134343F0BF633A
:101FEC0043F40033BB60044ABB68D36000BF1437B2
:101FFC00BD4680BC704700BF00ED00E080B400AF70
:10200C00044BDB681B0A03F007031846BD4680BC73
:10201C00704700BF00ED00E080B483B000AF034612
:10202C00FB7197F90730002B0BDBFB7903F01F02D8
:10203C00064997F907305B09012000FA02F241F8D2
:10204C00232000BF0C37BD4680BC704700E100E088
:10205C0080B483B000AF03463960FB7197F9073049
:10206C00002B0ADB3B68DAB20C4997F907301201F6
:10207C00D2B20B4483F800230AE03B68DAB2084979
:10208C00FB7903F00F03043B1201D2B20B441A7616
:10209C0000BF0C37BD4680BC704700BF00E100E0BC
:1020AC0000ED00E080B489B000AFF860B9607A60F0
:1020BC00FB6803F00703FB61FB69C3F10703042B07
:1020CC0028BF0423BB61FB690433062B02D9FB69CF
:1020DC00033B00E000237B614FF0FF32BB6902FA47
:1020EC0003F3DA43BB681A407B699A404FF0FF3127
:1020FC007B6901FA03F3D9437B680B401343184601
:10210C002437BD4680BC704780B582B000AF786084
:10211C007B68013BB3F1807F01D301230FE00A4AB6
:10212C007B68013B53600F214FF0FF30FFF790FFAE
:10213C00054B00229A60044B07221A6000231846B4
:10214C000837BD4680BD00BF10E000E080B582B00E
:10215C0000AF78607868FFF72DFF00BF0837BD46E9
:10216C0080BD80B586B000AF0346B9607A60FB7362
:10217C0000237B61FFF742FF78617A68B968786960
:10218C00FFF790FF024697F90F3011461846FFF7FC
:10219C005FFF00BF1837BD4680BD80B582B000AF71
:1021AC000346FB7197F907301846FFF735FF00BF60
:1021BC000837BD4680BD80B582B000AF78607868C6
:1021CC00FFF7A2FF034618460837BD4680BD000046
:1021DC0080B48BB000AF7860396000237B62002341
:1021EC003B6248E101227B6A02FA03F3FB613B6824
:1021FC001B68FA691340BB61BA69FB699A4240F0EB
:10220C0037813B685B68A34A93425ED0A14A9342F4
:10221C0075D8A14A934258D09F4A93426FD89F4A8F
:10222C00934252D09D4A934269D89D4A93424CD0D6
:10223C009B4A934263D89B4A934246D0994A934215
:10224C005DD8122B2AD8122B59D801A252F823F0A0
:10225C00D7220008B1220008C32200080523000879
:10226C000B2300080B2300080B2300080B2300088A
:10227C000B2300080B2300080B2300080B2300087A
:10228C000B2300080B2300080B2300080B2300086A
:10229C000B230008B9220008CD220008824A934281
:1022AC0013D02CE03B68DB683B6229E03B68DB68C1
:1022BC0004333B6224E03B68DB6808333B621FE07D
:1022CC003B68DB680C333B621AE03B689B68002B75
:1022DC0002D104233B6213E03B689B68012B05D1C0
:1022EC0008233B627B68FA691A6109E008233B62A8
:1022FC007B68FA695A6103E000233B6200E000BF8F
:10230C00BB69FF2B01D87B6801E07B6804337B61E0
:10231C00BB69FF2B02D87B6A9B0002E07B6A083BFF
:10232C009B003B617B691A680F213B6901FA03F33F
:10233C00DB431A40396A3B6901FA03F31A437B69A0
:10234C001A603B685B6803F08053002B00F09080B0
:10235C00564B9B69554A43F001039361534B9B6960
:10236C0003F00103BB60BB68514A7B6A9B080233D4
:10237C0052F82330FB607B6A03F003039B000F22AF
:10238C0002FA03F3DB43FA681340FB607B68494AAB
:10239C0093420DD07B68484A934207D07B68474AEA
:1023AC00934201D1022304E0032302E0012300E065
:1023BC0000237A6A02F0030292009340FA681343F6
:1023CC00FB603B497B6A9B080233FA6841F8232087
:1023DC003B685B6803F48013002B06D0384B9A687B
:1023EC003749BB6913438B6006E0354B9A68BB6970
:1023FC00DB43334913408B603B685B6803F4001389
:10240C00002B06D02E4BDA682D49BB691343CB60E9
:10241C0006E02B4BDA68BB69DB4329491340CB60E0
:10242C003B685B6803F40033002B06D0244B5A68DE
:10243C002349BB6913434B6006E0214B5A68BB69C7
:10244C00DB431F4913404B603B685B6803F48033EC
:10245C00002B06D01A4B1A681949BB6913430B6041
:10246C0006E0174B1A68BB69DB43154913400B6038
:10247C007B6A01337B623B681A687B6A22FA03F33E
:10248C00002B7FF4AFAE00BF00BF2C37BD4680BC25
:10249C00704700BF00003210000031100000221005
:1024AC00000021100000121000001110001002405A
:1024BC000000014000080140000C014000100140E8
:1024CC000004014080B485B000AF78600B467B807F
:1024DC007B689A687B881340002B02D00123FB7326
:1024EC0001E00023FB73FB7B18461437BD4680BC10
:1024FC00704780B483B000AF78600B467B80134686
:10250C007B707B78002B03D07A887B681A6103E0A0
:10251C007B881A047B681A6100BF0C37BD4680BCEF
:10252C00704780B485B000AF78600B467B807B68C9
:10253C00DB68FB607A88FB6813401A04FB68D9439C
:10254C007B880B401A437B681A6100BF1437BD4669
:10255C0080BC704780B586B000AF78607B68002B7C
:10256C0001D101236CE27B681B6803F00103002B93
:10257C0000F08780924B5B6803F00C03042B0CD0AB
:10258C008F4B5B6803F00C03082B12D18C4B5B68F0
:10259C0003F48033B3F5803F0BD1894B1B6803F4F4
:1025AC000033002B6CD07B685B68002B68D1012357
:1025BC0046E27B685B68B3F5803F06D1804B1B68B5
:1025CC007F4A43F4803313602EE07B685B68002BFA
:1025DC000CD17B4B1B687A4A23F480331360784B05
:1025EC001B68774A23F4802313601DE07B685B68CB
:1025FC00B3F5A02F0CD1724B1B68714A43F48023A6
:10260C0013606F4B1B686E4A43F4803313600BE00E
:10261C006B4B1B686A4A23F480331360684B1B684E
:10262C00674A23F4802313607B685B68002B13D00C
:10263C00FFF7B6FC386108E0FFF7B2FC02463B69D5
:10264C00D31A642B01D90323FAE15D4B1B6803F405
:10265C000033002BF0D014E0FFF7A2FC386108E047
:10266C00FFF79EFC02463B69D31A642B01D9032366
:10267C00E6E1534B1B6803F40033002BF0D100E070
:10268C0000BF7B681B6803F00203002B63D04C4B2C
:10269C005B6803F00C03002B0BD0494B5B6803F019
:1026AC000C03082B1CD1464B5B6803F48033002BC6
:1026BC0016D1434B1B6803F00203002B05D07B683B
:1026CC001B69012B01D00123BAE13D4B1B6823F0A0
:1026DC00F8027B685B69DB00394913430B603AE015
:1026EC007B681B69002B20D0364B01221A60FFF748
:1026FC0057FC386108E0FFF753FC02463B69D31ADC
:10270C00022B01D903239BE12D4B1B6803F0020321
:10271C00002BF0D02A4B1B6823F0F8027B685B6916
:10272C00DB00274913430B6015E0264B00221A608F
:10273C00FFF736FC386108E0FFF732FC02463B69D4
:10274C00D31A022B01D903237AE11D4B1B6803F02A
:10275C000203002BF0D17B681B6803F00803002BED
:10276C003AD07B689B69002B19D0174B01221A6059
:10277C00FFF716FC386108E0FFF712FC02463B69D4
:10278C00D31A022B01D903235AE10D4B5B6A03F0D8
:10279C000203002BF0D0012000F09AFA1CE00A4B47
:1027AC0000221A60FFF7FCFB38610FE0FFF7F8FB23
:1027BC0002463B69D31A022B08D9032340E100BF20
:1027CC000010024000004242800442429E4B5B6A71
:1027DC0003F00203002BE9D17B681B6803F00403B0
:1027EC00002B00F0A6800023FB75974BDB6903F0F0
:1027FC008053002B0DD1944BDB69934A43F08053EB
:10280C00D361914BDB6903F08053BB60BB68012340
:10281C00FB758E4B1B6803F48073002B18D18B4B0C
:10282C001B688A4A43F480731360FFF7B9FB386165
:10283C0008E0FFF7B5FB02463B69D31A642B01D9BC
:10284C000323FDE0814B1B6803F48073002BF0D055
:10285C007B68DB68012B06D17B4B1B6A7A4A43F001
:10286C00010313622DE07B68DB68002B0CD1764BE7
:10287C001B6A754A23F001031362734B1B6A724A7D
:10288C0023F0040313621CE07B68DB68052B0CD17E
:10289C006D4B1B6A6C4A43F0040313626A4B1B6A50
:1028AC00694A43F0010313620BE0674B1B6A664AEB
:1028BC0023F001031362644B1B6A634A23F0040385
:1028CC0013627B68DB68002B15D0FFF769FB38615E
:1028DC000AE0FFF765FB02463B69D31A41F28832E6
:1028EC00934201D90323ABE0574B1B6A03F002035D
:1028FC00002BEED014E0FFF753FB38610AE0FFF732
:10290C004FFB02463B69D31A41F28832934201D9FC
:10291C00032395E04C4B1B6A03F00203002BEED112
:10292C00FB7D012B05D1484BDB69474A23F08053D3
:10293C00D3617B68DB69002B00F08180424B5B68C4
:10294C0003F00C03082B61D07B68DB69022B46D1AA
:10295C003F4B00221A60FFF723FB386108E0FFF7BA
:10296C001FFB02463B69D31A022B01D9032367E0F4
:10297C00354B1B6803F00073002BF0D17B681B6A8E
:10298C00B3F5803F08D1304B5B6823F400327B6891
:10299C009B682D4913434B602B4B5B6823F47412DB
:1029AC007B68196A7B685B6A0B43274913434B604E
:1029BC00274B01221A60FFF7F3FA386108E0FFF7A2
:1029CC00EFFA02463B69D31A022B01D9032337E0F5
:1029DC001D4B1B6803F00073002BF0D02FE01C4B39
:1029EC0000221A60FFF7DCFA386108E0FFF7D8FA2A
:1029FC0002463B69D31A022B01D9032320E0124B68
:102A0C001B6803F00073002BF0D118E07B68DB69C6
:102A1C00012B01D1012313E00B4B5B68FB60FB68BE
:102A2C0003F480327B681B6A9A4206D1FB6803F47C
:102A3C0070127B685B6A9A4201D0012300E000238C
:102A4C0018461837BD4680BD00100240007000408B
:102A5C006000424280B584B000AF786039607B681A
:102A6C00002B01D10123D0E06A4B1B6803F0070354
:102A7C003A689A4210D9674B1B6823F007026549E4
:102A8C003B6813430B60634B1B6803F007033A6806
:102A9C009A4201D00123B8E07B681B6803F0020363
:102AAC00002B20D07B681B6803F00403002B05D09F
:102ABC00594B5B68584A43F4E06353607B681B686E
:102ACC0003F00803002B05D0534B5B68524A43F4C8
:102ADC0060535360504B5B6823F0F0027B689B683B
:102AEC004D4913434B607B681B6803F00103002BBB
:102AFC0040D07B685B68012B07D1474B1B6803F404
:102B0C000033002B15D101237FE07B685B68022B1F
:102B1C0007D1414B1B6803F00073002B09D1012333
:102B2C0073E03D4B1B6803F00203002B01D1012322
:102B3C006BE0394B5B6823F003027B685B683649BA
:102B4C0013434B60FFF72CFAF8600AE0FFF728FA02
:102B5C000246FB68D31A41F28832934201D903230F
:102B6C0053E02D4B5B6803F00C027B685B689B00A9
:102B7C009A42EBD1274B1B6803F007033A689A4241
:102B8C0010D2244B1B6823F0070222493B681343E5
:102B9C000B60204B1B6803F007033A689A4201D084
:102BAC00012332E07B681B6803F00403002B08D080
:102BBC00194B5B6823F4E0627B68DB6816491343AE
:102BCC004B607B681B6803F00803002B09D0124B89
:102BDC005B6823F460527B681B69DB000E4913436E
:102BEC004B6000F021F802460B4B5B681B0903F0AD
:102BFC000F030A49CB5C22FA03F3094A1360094B11
:102C0C001B681846FFF78AF9002318461037BD4693
:102C1C0080BD00BF0020024000100240403500087B
:102C2C00800000208400002080B487B000AF002317
:102C3C00FB600023BB6000237B6100237B600023CF
:102C4C003B611E4B5B68FB60FB6803F00C03042BC1
:102C5C0002D0082B03D027E0194B3B6127E0FB681F
:102C6C009B0C03F00F03174AD35C7B60FB6803F4E7
:102C7C008033002B10D0114B5B685B0C03F001030D
:102C8C00114AD35CBB607B680D4A02FB03F2BB6844
:102C9C00B2FBF3F37B6104E07B680C4A02FB03F3A9
:102CAC007B617B693B6102E0054B3B6100BF3B698B
:102CBC0018461C37BD4680BC704700BF0010024050
:102CCC0000127A00503500086035000800093D00FC
:102CDC0080B485B000AF78600A4B1B680A4AA2FB2F
:102CEC0003235B0A7A6802FB03F3FB6000BFFB68FB
:102CFC005A1EFA60002BF9D100BF00BF1437BD4635
:102D0C0080BC704780000020D34D621080B582B02B
:102D1C0000AF78607B68002B01D1012341E07B6818
:102D2C0093F83D30DBB2002B06D17B68002283F890
:102D3C003C207868FEF7C0FB7B68022283F83D20BC
:102D4C007B681A687B6804331946104600F056FA03
:102D5C007B68012283F846207B68012283F83E20A1
:102D6C007B68012283F83F207B68012283F8402096
:102D7C007B68012283F841207B68012283F8422082
:102D8C007B68012283F843207B68012283F844206E
:102D9C007B68012283F845207B68012283F83D2063
:102DAC00002318460837BD4680BD000080B485B0AE
:102DBC0000AF78607B6893F83D30DBB2012B01D01B
:102DCC00012335E07B68022283F83D207B681B6879
:102DDC00DA687B681B6842F00102DA607B681B686A
:102DEC00164A934209D07B681B68B3F1804F04D01C
:102DFC007B681B68124A934211D17B681B689B68E5
:102E0C0003F00703FB60FB68062B10D07B681B6884
:102E1C001A687B681B6842F001021A6007E07B6845
:102E2C001B681A687B681B6842F001021A60002359
:102E3C0018461437BD4680BC704700BF002C0140BB
:102E4C000004004080B584B000AF78607B681B68DC
:102E5C00DB68FB607B681B681B69BB60BB6803F0AD
:102E6C000203002B20D0FB6803F00203002B1BD0C5
:102E7C007B681B686FF002021A617B6801221A776B
:102E8C007B681B689B6903F00303002B03D07868F5
:102E9C0000F098F905E0786800F08BF9786800F09C
:102EAC009AF97B6800221A77BB6803F00403002BA5
:102EBC0020D0FB6803F00403002B1BD07B681B683D
:102ECC006FF004021A617B6802221A777B681B6818
:102EDC009B6903F44073002B03D0786800F072F9FF
:102EEC0005E0786800F065F9786800F074F97B68A3
:102EFC0000221A77BB6803F00803002B20D0FB6874
:102F0C0003F00803002B1BD07B681B686FF00802D2
:102F1C001A617B6804221A777B681B68DB6903F0F3
:102F2C000303002B03D0786800F04CF905E07868B7
:102F3C0000F03FF9786800F04EF97B6800221A77B0
:102F4C00BB6803F01003002B20D0FB6803F01003C8
:102F5C00002B1BD07B681B686FF010021A617B681A
:102F6C0008221A777B681B68DB6903F44073002B1B
:102F7C0003D0786800F026F905E0786800F019F9BC
:102F8C00786800F028F97B6800221A77BB6803F098
:102F9C000103002B0CD0FB6803F00103002B07D0BE
:102FAC007B681B686FF001021A617868FEF788F87D
:102FBC00BB6803F08003002B0CD0FB6803F080038C
:102FCC00002B07D07B681B686FF080021A61786851
:102FDC0000F06FFABB6803F04003002B0CD0FB68C9
:102FEC0003F04003002B07D07B681B686FF0400296
:102FFC001A61786800F0F8F8BB6803F02003002B26
:10300C000CD0FB6803F02003002B07D07B681B68F7
:10301C006FF020021A61786800F042FA00BF103796
:10302C00BD4680BD80B584B000AF786039600023A8
:10303C00FB737B6893F83C30012B01D10223B4E085
:10304C007B68012283F83C207B68022283F83D20B8
:10305C007B681B689B68BB60BB6823F07703BB6015
:10306C00BB6823F47F43BB607B681B68BA689A60BB
:10307C003B681B68B3F5005F3ED0B3F5005F00F210
:10308C008780B3F5805F00F08680B3F5805F7FD8D2
:10309C00702B1AD0702B7BD8602B50D0602B77D82C
:1030AC00502B3CD0502B73D8402B58D0402B6FD882
:1030BC00302B64D0302B6BD8202B60D0202B67D8D2
:1030CC00002B5CD0102B5AD062E07B6818683B68F0
:1030DC0099683B685A683B68DB6800F06AF97B6862
:1030EC001B689B68BB60BB6843F07703BB607B6865
:1030FC001B68BA689A604FE07B6818683B689968EF
:10310C003B685A683B68DB6800F053F97B681B68C6
:10311C009A687B681B6842F480429A603CE07B684A
:10312C0018683B6859683B68DB681A4600F0CAF8B7
:10313C007B681B685021184600F021F92CE07B6855
:10314C0018683B6859683B68DB681A4600F0E8F879
:10315C007B681B686021184600F011F91CE07B6845
:10316C0018683B6859683B68DB681A4600F0AAF897
:10317C007B681B684021184600F001F90CE07B6865
:10318C001A683B681B681946104600F0F8F803E013
:10319C000123FB7300E000BF7B68012283F83D2014
:1031AC007B68002283F83C20FB7B18461037BD4619
:1031BC0080BD80B483B000AF786000BF0C37BD46D3
:1031CC0080BC704780B483B000AF786000BF0C3710
:1031DC00BD4680BC704780B483B000AF786000BF40
:1031EC000C37BD4680BC704780B483B000AF7860AC
:1031FC0000BF0C37BD4680BC7047000080B485B062
:10320C0000AF786039607B681B68FB607B682B4A79
:10321C00934207D07B68B3F1804F03D07B68284A78
:10322C00934208D1FB6823F07003FB603B685B683A
:10323C00FA681343FB607B68204A934207D07B6893
:10324C00B3F1804F03D07B681D4A934208D1FB68D1
:10325C0023F44073FB603B68DB68FA681343FB6044
:10326C00FB6823F080023B685B691343FB607B685F
:10327C00FA681A603B689A687B68DA623B681A687D
:10328C007B689A627B680D4A934203D13B681A694A
:10329C007B681A637B6801225A617B681B6903F0A7
:1032AC000103002B05D07B681B6923F001027B68AE
:1032BC001A6100BF1437BD4680BC7047002C01401A
:1032CC000004004080B487B000AFF860B9607A6049
:1032DC00FB681B6A7B61FB681B6A23F00102FB68BD
:1032EC001A62FB689B693B613B6923F0F0033B610D
:1032FC007B681B013A6913433B617B6923F00A032A
:10330C007B617A69BB6813437B61FB683A699A619C
:10331C00FB687A691A6200BF1C37BD4680BC7047D7
:10332C0080B487B000AFF860B9607A60FB681B6A44
:10333C007B61FB681B6A23F01002FB681A62FB6856
:10334C009B693B613B6923F470433B617B681B03C6
:10335C003A6913433B617B6923F0A0037B61BB6833
:10336C001B017A6913437B61FB683A699A61FB68BC
:10337C007A691A6200BF1C37BD4680BC704780B4A6
:10338C0085B000AF786039607B689B68FB60FB6838
:10339C0023F07003FB603A68FB68134343F00703A8
:1033AC00FB607B68FA689A6000BF1437BD4680BC2E
:1033BC00704780B487B000AFF860B9607A603B604A
:1033CC00FB689B687B617B6923F47F437B613B6873
:1033DC001A027B681A43BB6813437A6913437B61F7
:1033EC00FB687A699A6000BF1C37BD4680BC704789
:1033FC0080B485B000AF786039607B6893F83C305E
:10340C00012B01D1022341E07B68012283F83C208F
:10341C007B68022283F83D207B681B685B68FB603D
:10342C007B681B689B68BB60FB6823F07003FB60C8
:10343C003B681B68FA681343FB607B681B68FA687F
:10344C005A607B681B68144A934209D07B681B68DE
:10345C00B3F1804F04D07B681B68104A93420CD1A7
:10346C00BB6823F08003BB603B685B68BA6813439E
:10347C00BB607B681B68BA689A607B68012283F822
:10348C003D207B68002283F83C200023184614372B
:10349C00BD4680BC704700BF002C014000040040BA
:1034AC0080B483B000AF786000BF0C37BD4680BCE1
:1034BC00704780B483B000AF786000BF0C37BD4656
:1034CC0080BC704770B500260C4D0D4C641BA410CD
:1034DC00A64209D100F022F800260A4D0A4C641BC2
:1034EC00A410A64205D170BD55F8043B984701368F
:1034FC00EEE755F8043B98470136F2E764350008CF
:10350C006435000864350008683500080346024439
:10351C00934200D1704703F8011BF9E7F8B500BFDF
:10352C00F8BC08BC9E467047F8B500BFF8BC08BC98
:04353C009E467047F0
:103540000000000000000000010203040607080953
:1035500002030405060708090A0B0C0D0E0F1010D4
:043560000102000064
:043564003101000829
:043568000D01000849
:10356C00010000000100000001000000010000004B
:10357C00010000000100000001000000010000003B
:10358C00010000000100000001000000010000002B
:10359C002C0100000B0000000F00000013000000C5
:1035AC0017000000050000000900000005000000E5
:1035BC0003000000020000000500000003000000F2
:1035CC0002000000030000000200000005000000E3
:1035DC000300000002000000050000000A000000CB
:0C35EC0000127A00100000000100000036
:0400000508001EB120
:00000001FF
